:020000040800F2
:10000000000002209D1C0008DD1B0008E51B000805
:10001000ED1B0008F51B0008FD1B00080000000098
:10002000000000000000000000000000051C0008A7
:10003000131C000800000000211C00082F1C0008F1
:10004000ED1C0008ED1C0008ED1C0008ED1C00086C
:10005000ED1C0008ED1C0008ED1C0008ED1C00085C
:10006000ED1C0008ED1C0008ED1C0008ED1C00084C
:10007000ED1C0008ED1C0008ED1C0008ED1C00083C
:100080003D1C0008511C0008ED1C0008ED1C000878
:10009000ED1C0008ED1C0008ED1C0008ED1C00081C
:1000A000ED1C0008ED1C0008ED1C0008ED1C00080C
:1000B000ED1C0008ED1C0008ED1C0008ED1C0008FC
:1000C000ED1C0008ED1C0008ED1C0008ED1C0008EC
:1000D000ED1C0008ED1C0008ED1C0008ED1C0008DC
:1000E000ED1C0008ED1C0008ED1C0008ED1C0008CC
:1000F000ED1C0008ED1C0008ED1C0008ED1C0008BC
:10010000ED1C0008ED1C0008ED1C0008ED1C0008AB
:10011000ED1C0008ED1C0008ED1C0008ED1C00089B
:10012000ED1C0008651C0008ED1C0008ED1C000813
:10013000ED1C0008ED1C0008ED1C0008ED1C00087B
:10014000ED1C0008ED1C0008ED1C0008ED1C00086B
:10015000ED1C0008ED1C0008ED1C0008ED1C00085B
:10016000ED1C0008ED1C0008ED1C0008ED1C00084B
:10017000ED1C0008ED1C0008ED1C0008000000004C
:08018000ED1C0008ED1C000855
:1001880010B5054C237833B9044B13B10448AFF3C9
:1001980000800123237010BD7000002000000000C3
:1001A800345E000808B5034B1BB103490348AFF39D
:1001B800008008BD0000000074000020345E0008C4
:1001C800034613F8012B002AFBD1181A013870478F
:1001D80081F0004102E000BF83F0004330B54FEAF0
:1001E80041044FEA430594EA050F08BF90EA020F5D
:1001F8001FBF54EA000C55EA020C7FEA645C7FEAF0
:10020800655C00F0E2804FEA5454D4EB5555B8BF12
:100218006D420CDD2C4480EA020281EA030382EA83
:10022800000083EA010180EA020281EA0303362D15
:1002380088BF30BD11F0004F4FEA01314FF4801CE8
:100248004CEA113102D0404261EB410113F0004FFA
:100258004FEA03334CEA133302D0524263EB4303B1
:1002680094EA050F00F0A780A4F10104D5F1200E4F
:100278000DDB02FA0EFC22FA05F2801841F10001AA
:1002880003FA0EF2801843FA05F359410EE0A5F17E
:1002980020050EF1200E012A03FA0EFC28BF4CF0AF
:1002A800020C43FA05F3C01851EBE37101F0004565
:1002B80007D54FF0000EDCF1000C7EEB00006EEB72
:1002C8000101B1F5801F1BD3B1F5001F0CD34908FC
:1002D8005FEA30004FEA3C0C04F101044FEA445253
:1002E80012F5800F80F09A80BCF1004F08BF5FEADA
:1002F800500C50F1000041EB045141EA050130BDBA
:100308005FEA4C0C404141EB0101013C28BFB1F5CB
:10031800801FE9D291F0000F04BF01460020B1FA16
:1003280081F308BF2033A3F10B03B3F120020CDAE9
:100338000C3208DD02F1140CC2F10C0201FA0CF0C7
:1003480021FA02F10CE002F11402D8BFC2F1200C2C
:1003580001FA02F120FA0CFCDCBF41EA0C019040E2
:10036800E41AA2BF01EB0451294330BD6FEA04042B
:100378001F3C1CDA0C340EDC04F11404C4F1200216
:1003880020FA04F001FA02F340EA030021FA04F328
:1003980045EA030130BDC4F10C04C4F1200220FA7F
:1003A80002F001FA04F340EA0300294630BD21FABD
:1003B80004F0294630BD94F0000F83F4801306BF83
:1003C80081F480110134013D4EE77FEA645C18BF77
:1003D8007FEA655C29D094EA050F08BF90EA020F0E
:1003E80005D054EA000C04BF1946104630BD91EA06
:1003F800030F1EBF0021002030BD5FEA545C05D109
:100408004000494128BF41F0004130BD14F5800447
:100418003CBF01F5801130BD01F0004545F0FE41BB
:1004280041F470014FF0000030BD7FEA645C1ABFF0
:10043800194610467FEA655C1CBF0B46024650EA27
:10044800013406BF52EA033591EA030F41F4002153
:1004580030BD00BF90F0000F04BF0021704730B5D9
:100468004FF4806404F132044FF000054FF00001AE
:1004780050E700BF90F0000F04BF0021704730B56F
:100488004FF4806404F1320410F0004548BF404244
:100498004FF000013EE700BF42004FEAE2014FEA99
:1004A80031014FEA02701FBF12F07F4393F07F4F74
:1004B80081F06051704732F07F4208BF704793F077
:1004C8007F4F04BF41F40021704730B54FF460748A
:1004D80001F0004521F000411CE700BF50EA01028D
:1004E80008BF704730B54FF000050AE050EA010236
:1004F80008BF704730B511F0004502D5404261EBA6
:1005080041014FF4806404F132045FEA915C3FF4E6
:10051800D8AE4FF003025FEADC0C18BF03325FEA83
:10052800DC0C18BF033202EBDC02C2F1200300FA34
:1005380003FC20FA02F001FA03FE40EA0E0021FA59
:1005480002F11444BDE600BF70B54FF0FF0C4CF447
:10055800E06C1CEA11541DBF1CEA135594EA0C0FF9
:1005680095EA0C0F00F0DEF82C4481EA030621EA34
:100578004C5123EA4C5350EA013518BF52EA03356F
:1005880041F4801143F4801338D0A0FB02CE4FF021
:100598000005E1FB02E506F00042E0FB03E54FF051
:1005A8000006E1FB03569CF0000F18BF4EF0010E49
:1005B800A4F1FF04B6F5007F64F5407404D25FEA45
:1005C8004E0E6D4146EB060642EAC62141EA5551F8
:1005D8004FEAC52040EA5E504FEACE2EB4F1FD0C3A
:1005E80088BFBCF5E06F1ED8BEF1004F08BF5FEAB8
:1005F800500E50F1000041EB045170BD06F000466A
:1006080046EA010140EA020081EA0301B4EB5C0416
:10061800C2BFD4EB0C0541EA045170BD41F480110E
:100628004FF0000E013C00F3AB8014F1360FDEBF33
:10063800002001F0004170BDC4F10004203C35DA0F
:100648000C341BDC04F11404C4F1200500FA05F392
:1006580020FA04F001FA05F240EA020001F0004233
:1006680021F0004110EBD37021FA04F642EB0601A9
:100678005EEA430E08BF20EAD37070BDC4F10C04D3
:10068800C4F1200500FA04F320FA05F001FA04F297
:1006980040EA020001F0004110EBD37041F1000183
:1006A8005EEA430E08BF20EAD37070BDC4F120058E
:1006B80000FA05F24EEA020E20FA04F301FA05F2F6
:1006C80043EA020321FA04F001F0004121FA04F29E
:1006D80020EA020000EBD3705EEA430E08BF20EA6E
:1006E800D37070BD94F0000F0FD101F000464000A8
:1006F80041EB010111F4801F08BF013CF7D041EA2A
:10070800060195F0000F18BF704703F0004652002D
:1007180043EB030313F4801F08BF013DF7D043EAFE
:100728000603704794EA0C0F0CEA135518BF95EAB4
:100738000C0F0CD050EA410618BF52EA4306D1D13B
:1007480081EA030101F000414FF0000070BD50EA5A
:10075800410606BF1046194652EA430619D094EAE4
:100768000C0F02D150EA013613D195EA0C0F05D1CE
:1007780052EA03361CBF104619460AD181EA030122
:1007880001F0004141F0FE4141F470014FF00000DA
:1007980070BD41F0FE4141F4780170BD70B54FF075
:1007A800FF0C4CF4E06C1CEA11541DBF1CEA1355F5
:1007B80094EA0C0F95EA0C0F00F0A7F8A4EB0504D7
:1007C80081EA030E52EA03354FEA013100F08880CE
:1007D8004FEA03334FF0805545EA131343EA126397
:1007E8004FEA022245EA111545EA10654FEA00264C
:1007F8000EF000419D4208BF964244F1FD0404F505
:10080800407402D25B084FEA3202B61A65EB030560
:100818005B084FEA32024FF480104FF4002CB6EB1D
:10082800020E75EB030E22BFB61A754640EA0C009D
:100838005B084FEA3202B6EB020E75EB030E22BFDD
:10084800B61A754640EA5C005B084FEA3202B6EB1E
:10085800020E75EB030E22BFB61A754640EA9C00DD
:100868005B084FEA3202B6EB020E75EB030E22BFAD
:10087800B61A754640EADC0055EA060E18D04FEA6B
:10088800051545EA16754FEA06164FEAC30343EA0B
:1008980052734FEAC2025FEA1C1CC0D111F4801FD8
:1008A8000BD141EA00014FF000004FF0004CB6E7D1
:1008B80011F4801F04BF01430020B4F1FD0C88BF70
:1008C800BCF5E06F3FF6AFAEB5EB030C04BFB6EB7B
:1008D800020C5FEA500C50F1000041EB045170BD6E
:1008E8000EF0004E4EEA113114EB5C04C2BFD4EB9B
:1008F8000C0541EA045170BD41F480114FF0000E1F
:10090800013C90E645EA060E8DE60CEA135594EA9A
:100918000C0F08BF95EA0C0F3FF43BAF94EA0C0F9D
:100928000AD150EA01347FF434AF95EA0C0F7FF412
:1009380025AF104619462CE795EA0C0F06D152EA66
:1009480003353FF4FDAE1046194622E750EA41064A
:1009580018BF52EA43067FF4C5AE50EA41047FF45B
:100968000DAF52EA43057FF4EBAE12E74FF0FF3CC0
:1009780006E000BF4FF0010C02E000BF4FF0010C91
:100988004DF804CD4FEA410C7FEA6C5C4FEA430C0A
:1009980018BF7FEA6C5C1BD001B050EA410C0CBF59
:1009A80052EA430C91EA030F02BF90EA020F0020BB
:1009B800704710F1000F91EA030F58BF994208BF22
:1009C80090422CBFD8176FEAE37040F001007047DF
:1009D8004FEA410C7FEA6C5C02D150EA013C07D136
:1009E8004FEA430C7FEA6C5CD6D152EA033CD3D081
:1009F8005DF8040B704700BF8446104662468C467B
:100A08001946634600E000BF01B5FFF7B7FF0028AD
:100A180048BF10F1000F01BD4DF808EDFFF7F4FFD6
:100A28000CBF012000205DF808FB00BF4DF808ED61
:100A3800FFF7EAFF34BF012000205DF808FB00BF84
:100A48004DF808EDFFF7E0FF94BF012000205DF8A6
:100A580008FB00BF4DF808EDFFF7CEFF94BF01205B
:100A680000205DF808FB00BF4DF808EDFFF7C4FF54
:100A780034BF012000205DF808FB00BF4FEA410C9D
:100A88007FEA6C5C02D150EA013C0AD14FEA430C80
:100A98007FEA6C5C02D152EA033C02D14FF00000BD
:100AA80070474FF0010070474A0011D212F500124A
:100AB80011D20DD56FF47873B3EB62520ED44FEAAE
:100AC800C12343F0004343EA505323FA02F070472E
:100AD8004FF00000704750EA013002D14FF0FF306C
:100AE80070474FF0000070474FEA4102B2F1E0430F
:100AF80024BFB3F5001CDCF1FE5C0DD901F0004CFD
:100B08004FEAC0024CEA5070B2F1004F40EB83004C
:100B180008BF20F00100704711F0804F21D113F178
:100B28003872BCBF01F00040704741F480114FEAB1
:100B38005252C2F11802C2F1200C10FA0CF320FA3A
:100B480002F018BF40F001004FEAC1234FEAD32357
:100B580003FA0CFC40EA0C0023FA02F34FEA4303C1
:100B6800CCE77FEA625307D150EA01331EBF4FF04A
:100B7800FE4040F44000704701F0004040F0FE4065
:100B880040F40000704700BF53B94AB9002908BFB4
:100B980000281CBF4FF0FF314FF0FF3000F06AB95A
:100BA800ADF1080C6DE904CE00F006F8DDF804E0BC
:100BB800DDE9022304B070472DE9F047089D0C4693
:100BC800002B4ED194468C458646B2FA82F262D901
:100BD8004AB1C2F12003914020FA03F30CFA02FC57
:100BE800194300FA02FE4FEA1C471FFA8CF6B1FBC4
:100BF800F7F44FEA1E4307FB141143EA014304FBD1
:100C080006F199420AD91CEB030304F1FF3080F086
:100C18001281994240F20F81023C6344591A1FFA2B
:100C28008EF3B1FBF7F007FB101143EA014300FB19
:100C380006F69E420AD91CEB030300F1FF3180F04F
:100C4800FC809E4240F2F980634402389B1B40EAD4
:100C5800044000211DB1D3400022C5E90032BDE89F
:100C6800F0878B4205D90DB1C5E90001002108467E
:100C7800F5E7B3FA83F1002946D1A34202D39042A3
:100C8800C0F0F080861A64EB03030120002DE6D043
:100C9800C5E90063E3E7002A40F09080A1EB0C046B
:100CA8004FEA1C481FFA8CF70121B4FBF8F64FEA0B
:100CB8001E4308FB164443EA044307FB06F0984228
:100CC80008D91CEB030306F1FF3402D2984200F264
:100CD800CD8026461C1A1FFA8EF3B4FBF8F008FBE9
:100CE800104443EA044300FB07F79F4208D91CEB72
:100CF800030300F1FF3402D29F4200F2B080204685
:100D0800DB1B40EA0640A5E7C1F120068B4022FA2A
:100D180006F71F4320FA06FC04FA01F343EA0C0322
:100D2800F44000FA01F8380C4FEA1349B4FBF0FE1E
:100D38001FFA87FC00FB1E4449EA04440EFB0CF929
:100D4800A14502FA01F20AD93C190EF1FF3A80F0E6
:100D58008480A14540F28180AEF1020E3C44A4EBB0
:100D680009041FFA83F9B4FBF0F300FB134449EAC2
:100D7800044403FB0CFCA44507D93C1903F1FF30DC
:100D880067D2A44565D9023B3C4443EA0E40A0FB28
:100D98000293A4EB0C049C42CE469C4651D34ED001
:100DA80055B1B8EB0E0364EB0C0404FA06F6CB401D
:100DB8001E43CC40C5E90064002150E7C2F120037E
:100DC80020FA03F10CFA02FC24FA03F394400C43D2
:100DD8004FEA1C4800FA02FE1FFA8CF7B3FBF8F042
:100DE80008FB1031230C43EA014300FB07F1994249
:100DF80008D91CEB030300F1FF362CD299422AD9FB
:100E0800023863445B1AA4B2B3FBF8F108FB113350
:100E180044EA034401FB07F3A34208D91CEB04048A
:100E280001F1FF3613D2A34211D902396444E41AFE
:100E380041EA004139E70446F0E6084606E7C845B6
:100E4800AED2B9EB020E63EB070C0138A8E73146C6
:100E5800EDE7034699E73046D4E7D6467FE7634493
:100E680002384DE70646234608460FE7023E63442C
:100E780030E700BF704700BF80B500AF124B1B685A
:100E88001846FFF709FB02460B4643EC112B9FED72
:100E98000C0B04F06BF853EC102B09A1D1E90001FD
:100EA800FFF77CFC02460B4610461946FFF71CFE6E
:100EB8000346064A136000BF80BD00BFAFF3008041
:100EC8000000000000E06F40D0020020CC020020AB
:100ED80080B500AF034B044A1A60FFF7CDFF00BF8F
:100EE80080BD00BFD0020020CDCC0C402DE9B0431E
:100EF80082B000AF0346FB80164B1B681846FFF70D
:100F0800CBFA04460D46FB881846FFF7A3FA80463D
:100F18008946114B1B681846FFF7BEFA02460B4676
:100F280043EC112B49EC108B04F020F853EC102BF8
:100F380020462946FFF708FB02460B46104619468D
:100F4800FFF7B2FD03469BB218460837BD46BDE819
:100F5800B08300BFCC020020D002002080B584B04E
:100F680000AF78600023FB8118E0FB891846FFF783
:100F7800BDFF0346BB81FB895B007A681344BA89CD
:100F88001A80FB89C3F1004303F2FD135B007A6802
:100F98001344BA891A80FB890133FB81FB89FE2B34
:100FA800E3D900BF00BF1037BD4680BD80B485B00F
:100FB80000AF786039600023FB603A6813461B0273
:100FC8009B1A5B003B603B680E4AA2FB03235B094C
:100FD8003B603B68002B07D04FF4FA23BB60BA682C
:100FE8003B68B2FBF3F3FB607B681B68FA68DA6264
:100FF8007B68FA68DA6000BF1437BD465DF8047B89
:10100800704700BF8988888880B485B000AF0346E0
:10101800FB80FB88B42B01D9B423FB80FB8840F20A
:101028009E7202FB03F3124A82FB03121A44D21186
:10103800DB17D31A9BB203F5FA73BB81BB89DB02BA
:101048000C4A82FB03125213DB17D31A9BB2013BE3
:10105800FB81FB89B3F5006F02D340F2FF73FB817C
:10106800FB8918461437BD465DF8047B704700BFFE
:10107800B7600BB6AD8BDB6880B485B000AFF860A5
:10108800B9601346FB80BB68002B04D1FB681B6862
:10109800FA885A6313E0BB68042B04D1FB681A680A
:1010A800FB8893630BE0BB68082B04D1FB681A68C4
:1010B800FB88D36303E0FB681A68FB88136400BFEE
:1010C8001437BD465DF8047B704780B584B000AF27
:1010D800786039603868FFF773F80346FB81FB894D
:1010E8001A463968786803F05DF900BF1037BD46C5
:1010F80080BD000080B483B000AF78607B681B6857
:10110800084A934208D1084B084A07CA03C31A7011
:10111800074B01221A7000E000BF0C37BD465DF88E
:10112800047B704700440040DC060020D006002005
:10113800E506002080B483B000AF78607B681B6848
:10114800034A93420C37BD465DF8047B704700BFE5
:101158000044004080B584B000AF78607B681B789D
:10116800FB737B685B78BB737B689B787B737B685E
:1011780003331B781A067B6804331B781B041A4355
:101188007B6805331B781B0213437A680632127892
:101198001343BB60FB7BFF2B11D1BB7B002B02D021
:1011A800012B06D00CE07B7BB968184600F00CF8E0
:1011B80006E07B7BB968184600F048F800E000BFFD
:1011C8001037BD4680BD000080B582B000AF034631
:1011D8003960FB71FB79022B1AD0022B2ADC002B19
:1011E80002D0012B0FD025E03B6803F00103002B50
:1011F80004D00021114802F02BFA1BE000210F480F
:1012080002F0EEFA16E039680D48FFF7CFFE11E05C
:101218003B6807EE903AB8EE677AF2EE046AC7EEDA
:10122800267A084BC3ED007AFFF726FE0648FFF73B
:1012380095FE00BF00BF0837BD4680BDD400002022
:101248001C010020D0020020D402002080B582B00A
:1012580000AF03463960FB71FB79002B0BD13B686B
:101268009BB21846FFF7D0FE03461A4604210448ED
:10127800FFF702FF00BF00BF0837BD4680BD00BFB3
:101288008C00002080B500AF00F02EFD00F06CF857
:1012980000F07CFA00F03CFA00F0CEF800F042F9D9
:1012A80000F0B6F900F00AFA09222349234803F0AE
:1012B800E9F8FFF70DFE2248FFF750FE002121480C
:1012C80002F0C6F90421204802F0C2F91C494FF483
:1012D800FF731E4A1E4800F05DFF1E4802F0F6F834
:1012E8001D491648FFF7F1FE4FF4FA7000F06EFD45
:1012F8001A491248FFF7E9FE78211648FFF756FE0B
:101308000020FFF781FE03461A4604210E48FFF726
:10131800B3FE134B1B78DBB2002B0BD0104B002213
:101328001A701048FFF716FF09220349034803F013
:10133800A9F8EEE700BFECE7D0060020C4010020C2
:10134800D4020020D40000208C0000203408004083
:10135800640100201C010020505E0008745E000833
:10136800E5060020DC06002080B594B000AF07F148
:10137800200330220021184603F0C6FD07F10C03B4
:1013880000221A605A609A60DA601A610023BB6012
:10139800274B1B6C264A43F080531364244B1B6C69
:1013A80003F08053BB60BB6800237B60214B1B6844
:1013B800204A43F4804313601E4B1B6803F48043A8
:1013C8007B607B6801233B624FF480337B6202239E
:1013D800BB634FF48003FB6304233B6440237B64BB
:1013E8000223BB640423FB6407F12003184601F0C1
:1013F80085FB0346002B01D000F01AFA0F23FB608F
:1014080002233B6100237B614FF48053BB610023BF
:10141800FB6107F10C030221184601F0E7FD0346C2
:10142800002B01D000F004FA00BF5037BD4680BD44
:10143800003802400070004080B58EB000AF07F160
:10144800280300221A605A609A60DA6007F12003C4
:1014580000221A605A603B1D00221A605A609A6086
:10146800DA601A615A619A612D4B4FF080421A6016
:101478002B4B4FF41C725A60294B00229A60284B60
:1014880040F2FF72DA60264B00221A61244B0022D8
:101498009A61234801F0CAFF0346002B01D000F0EF
:1014A800C7F94FF48053BB6207F1280319461C485B
:1014B80002F0C8FA0346002B01D000F0B9F9184829
:1014C80002F06CF80346002B01D000F0B1F90023BC
:1014D8003B6200237B6207F120031946104802F0A3
:1014E80095FE0346002B01D000F0A2F960237B6033
:1014F8000023BB600023FB6000237B613B1D0422AB
:101508001946074802F0DCF90346002B01D000F029
:101518008FF9034800F050FA00BF3837BD4680BD48
:101528008C00002080B58EB000AF07F128030022A0
:101538001A605A609A60DA6007F1200300221A6084
:101548005A603B1D00221A605A609A60DA601A617C
:101558005A619A612C4B2D4A1A602B4B18225A60FB
:10156800294B00229A60284BFF22DA60264B002282
:101578001A61254B00229A61234801F057FF034660
:10158800002B01D000F054F94FF48053BB6207F1EF
:10159800280319461C4802F055FA0346002B01D0CF
:1015A80000F046F9184801F0F9FF0346002B01D076
:1015B80000F03EF900233B6200237B6207F1200321
:1015C8001946114802F022FE0346002B01D000F014
:1015D8002FF960237B600023BB600023FB6000239E
:1015E8007B613B1D00221946074802F069F9034652
:1015F800002B01D000F01CF9034800F0DDF900BF12
:101608003837BD4680BD00BFD40000200008004028
:1016180080B586B000AF07F1080300221A605A604F
:101628009A60DA603B4600221A605A60214B224ACF
:101638001A60204B7C225A601E4B00229A601D4B78
:1016480040F2EB32DA601B4B00221A61194B002280
:101658005A61184B80229A61164801F0E7FE03464A
:10166800002B01D000F0E4F84FF48053BB6007F181
:10167800080319460F4802F0E5F90346002B01D08C
:1016880000F0D6F800233B6000237B603B461946F8
:10169800084802F0BBFD0346002B01D000F0C8F853
:1016A800054BDB68044A43F48073D36000BF1837E6
:1016B800BD4680BD1C0100200004014080B500AF7C
:1016C800114B124A1A60104B4FF4E1325A600E4B1C
:1016D80000229A600C4B0022DA600B4B00221A6140
:1016E800094B0C225A61084B00229A61064B0022D2
:1016F800DA61054802F006FE0346002B01D000F02F
:1017080097F800BF80BD00BFC4010020004400401E
:1017180080B582B000AF00237B601B4B1B6B1A4A5D
:1017280043F480031363184B1B6B03F480037B6043
:101738007B6800233B60144B1B6B134A43F4001374
:101748001363114B1B6B03F400133B603B680022CF
:101758000021102000F039FC102000F052FC00227B
:101768000021112000F031FC112000F04AFC002279
:101778000021392000F029FC392000F042FC00BF8C
:101788000837BD4680BD00BF0038024080B588B02C
:1017980000AF07F10C0300221A605A609A60DA6001
:1017A8001A610023BB60204B1B6B1F4A43F0800368
:1017B80013631D4B1B6B03F08003BB60BB680023E6
:1017C8007B60194B1B6B184A43F001031363164BDC
:1017D8001B6B03F001037B607B6800233B60124BAB
:1017E8001B6B114A43F0080313630F4B1B6B03F089
:1017F80008033B603B6800224FF480410B4801F02E
:1018080063F94FF48043FB6001233B6100237B6154
:101818000023BB6107F10C031946044800F0B8FF28
:1018280000BF2037BD4680BD00380240000C024092
:1018380080B500AF72B600BF01224FF4804109485D
:1018480001F042F94FF4FA7000F0C0FA00224FF4A8
:101858008041044801F038F94FF4FA7000F0B6FA04
:1018680000BFE9E7000C024080B483B000AF00235A
:101878007B60104B5B6C0F4A43F4804353640D4B01
:101888005B6C03F480437B607B6800233B60094BFF
:101898001B6C084A43F080531364064B1B6C03F01F
:1018A80080533B603B6800BF0C37BD465DF8047B46
:1018B800704700BF0038024080B586B000AF78603E
:1018C8007B681B68B3F1804F0ED100237B61354BD9
:1018D8001B6C344A43F001031364324B1B6C03F056
:1018E80001037B617B6958E07B681B682E4A934241
:1018F8000ED100233B612B4B1B6C2A4A43F0040397
:101908001364284B1B6C03F004033B613B6944E000
:101918007B681B68254A93423FD10023FB60214B1B
:101928005B6C204A43F0020353641E4B5B6C03F06C
:101938000203FB60FB681E4B1E4A1A601C4B4FF0EB
:1019480060625A601A4B40229A60194B0022DA6092
:10195800174B4FF480621A61154B4FF400625A61BD
:10196800134B4FF400529A61114B4FF48072DA61B5
:101978000F4B4FF400321A620D4B00225A620C488A
:1019880000F05AFB0346002B01D0FFF751FF7B689C
:10199800074A1A62064A7B68936300BF1837BD4638
:1019A80080BD00BF0038024000080040000401402C
:1019B800640100202864024080B58AB000AF7860D6
:1019C80007F1140300221A605A609A60DA601A61FB
:1019D8007B681B68B3F1804F1ED100233B61224B0B
:1019E8001B6B214A43F0010313631F4B1B6B03F06E
:1019F80001033B613B6902237B610223BB61002336
:101A0800FB6100233B6201237B6207F11403194643
:101A1800164800F0BDFE23E07B681B68144A934219
:101A28001ED10023FB60104B1B6B0F4A43F00803C9
:101A380013630D4B1B6B03F00803FB60FB684FF44B
:101A480080537B610223BB610023FB6100233B625F
:101A580002237B6207F114031946064800F098FE3A
:101A680000BF2837BD4680BD003802400000024054
:101A780000080040000C024080B58AB000AF7860D2
:101A880007F1140300221A605A609A60DA601A613A
:101A98007B681B68484A934240F08A8000233B6178
:101AA800464B1B6C454A43F400331364434B1B6C91
:101AB80003F400333B613B690023FB603F4B1B6B26
:101AC8003E4A43F0010313633C4B1B6B03F00103D5
:101AD800FB60FB680C237B610223BB610023FB6175
:101AE80003233B6207237B6207F11403194634483A
:101AF80000F04EFE334B344A1A60324B4FF000620E
:101B08005A60304B00229A602E4B0022DA602D4B2F
:101B18004FF480621A612B4B00225A61294B002234
:101B28009A61284B0022DA61264B4FF400321A6280
:101B3800244B00225A62234800F07EFA0346002B09
:101B480001D0FFF775FE7B681E4ADA631D4A7B6881
:101B580093631E4B1E4A1A601C4B4FF000625A607A
:101B68001A4B40229A60194B0022DA60174B4FF447
:101B780080621A61154B00225A61144B00229A6147
:101B8800124B0022DA61114B4FF400321A620F4BEC
:101B980000225A620D4800F04FFA0346002B01D08C
:101BA800FFF746FE7B68094A9A63084A7B68936395
:101BB80000BF2837BD4680BD0044004000380240C1
:101BC800000002400C020020886002406C020020E5
:101BD800A060024080B400AF00BFFDE780B400AF52
:101BE80000BFFDE780B400AF00BFFDE780B400AFE1
:101BF80000BFFDE780B400AF00BFFDE780B400AFD1
:101C080000BFBD465DF8047B704780B400AF00BFDD
:101C1800BD465DF8047B704780B400AF00BFBD4689
:101C28005DF8047B704780B500AF00F0AFF800BFE7
:101C380080BD000080B500AF024800F03FFB00BF48
:101C480080BD00BF0C02002080B500AF024800F044
:101C580035FB00BF80BD00BF6C02002080B500AF1F
:101C6800024800F02BFB00BF80BD00BF64010020CC
:101C780080B400AF064BD3F88830054A43F47003AC
:101C8800C2F8883000BFBD465DF8047B704700BFCE
:101C980000ED00E0DFF834D0FFF7EAFF0C480D490B
:101CA8000D4A002302E0D458C4500433C4188C42AF
:101CB800F9D30A4A0A4C002301E013600432A24215
:101CC800FBD303F02FF9FFF7DDFA7047000002207D
:101CD8000000002070000020E85E0008700000206E
:101CE80024080020FEE7000080B500AF0E4B1B68FB
:101CF8000D4A43F4007313600B4B1B680A4A43F404
:101D080080631360084B1B68074A43F480731360B1
:101D1800032000F04FF90F2000F008F8FFF7A4FDAA
:101D28000023184680BD00BF003C024080B582B049
:101D380000AF7860124B1A68124B1B7819464FF4A3
:101D48007A73B3FBF1F3B2FBF3F3184600F067F9CB
:101D58000346002B01D001230EE07B680F2B0AD825
:101D6800002279684FF0FF3000F02FF9064A7B68AF
:101D78001360002300E0012318460837BD4680BDE4
:101D880000000020080000200400002080B400AFFC
:101D9800064B1B781A46064B1B681344044A13600B
:101DA80000BFBD465DF8047B704700BF08000020F7
:101DB800E806002080B400AF034B1B681846BD46F8
:101DC8005DF8047B704700BFE806002080B584B04A
:101DD80000AF7860FFF7EEFFB8607B68FB60FB68D8
:101DE800B3F1FF3F05D00A4B1B781A46FB68134432
:101DF800FB6000BFFFF7DEFF0246BB68D31AFA6834
:101E08009A42F7D800BF00BF1037BD4680BD00BF5B
:101E18000800002080B485B000AF78607B6803F0CC
:101E28000703FB600C4BDB68BB60BA684FF6FF0327
:101E38001340BB60FB681A02BB68134343F0BF63DF
:101E480043F40033BB60044ABB68D36000BF143757
:101E5800BD465DF8047B704700ED00E080B400AF3C
:101E6800044BDB681B0A03F007031846BD465DF800
:101E7800047B704700ED00E080B483B000AF0346F8
:101E8800FB7197F90730002B0BDBFB7903F01F027E
:101E9800074997F907305B09012000FA02F241F877
:101EA800232000BF0C37BD465DF8047B704700BF98
:101EB80000E100E080B483B000AF03463960FB71F5
:101EC80097F90730002B0ADB3B68DAB20C4997F91F
:101ED80007301201D2B20B4483F800230AE03B68B2
:101EE800DAB20849FB7903F00F03043B1201D2B2BE
:101EF8000B441A7600BF0C37BD465DF8047B70476B
:101F080000E100E000ED00E080B489B000AFF860C7
:101F1800B9607A60FB6803F00703FB61FB69C3F1F2
:101F28000703042B28BF0423BB61FB690433062B7A
:101F380002D9FB69033B00E000237B614FF0FF32CD
:101F4800BB6902FA03F3DA43BB681A407B699A401B
:101F58004FF0FF317B6901FA03F3D9437B680B40EB
:101F6800134318462437BD465DF8047B70470000CC
:101F780080B582B000AF78607B68013BB3F1807FA9
:101F880001D301230FE00A4A7B68013B53600F210C
:101F98004FF0FF30FFF78EFF054B00229A60044B8D
:101FA80007221A60002318460837BD4680BD00BFC7
:101FB80010E000E080B582B000AF78607868FFF785
:101FC80029FF00BF0837BD4680BD80B586B000AF89
:101FD8000346B9607A60FB7300237B61FFF73EFF1D
:101FE80078617A68B9687869FFF78EFF024697F9D1
:101FF8000F3011461846FFF75DFF00BF1837BD4682
:1020080080BD80B582B000AF0346FB7197F90730F9
:102018001846FFF731FF00BF0837BD4680BD80B5C1
:1020280082B000AF78607868FFF7A2FF03461846D1
:102038000837BD4680BD000080B586B000AF786027
:1020480000237B61FFF7B6FE38617B68002B01D166
:10205800012399E07B68022283F835207B680022FF
:1020680083F834207B681B681A687B681B6822F039
:1020780001021A600FE0FFF79DFE02463B69D31A82
:10208800052B08D97B6820225A657B68032283F8D0
:102098003520032378E07B681B681B6803F0010385
:1020A800002BE8D17B681B681B687B617A69384B19
:1020B80013407B617B685A687B689B681A437B681E
:1020C800DB681A437B681B691A437B685B691A43A0
:1020D8007B689B691A437B68DB691A437B681B6AC8
:1020E80013437A6913437B617B685B6A042B07D1CE
:1020F8007B68DA6A7B681B6B13437A6913437B61DD
:102108007B681B687A691A607B681B685B697B61FE
:102118007B6923F007037B617B685B6A7A691343F9
:102128007B617B685B6A042B17D17B689B6A7A6941
:1021380013437B617B68DB6A002B0ED0786800F064
:10214800ABFA0346002B08D07B6840225A657B68AF
:10215800012283F83520012316E07B681B687A6921
:102168005A61786800F062FA0346FB607B68DB6DB1
:102178003F229A40FB689A607B6800225A657B6818
:10218800012283F83520002318461837BD4680BD44
:102198003F8010F080B586B000AFF860B9607A6013
:1021A8003B600023FB75FB6893F83430012B01D1A9
:1021B800022326E0FB68012283F83420FB6893F8A9
:1021C8003530DBB2012B15D1FB68022283F83520AC
:1021D800FB6800225A653B687A68B968F86800F0BD
:1021E800F7F9FB681B681A68FB681B6842F0010274
:1021F8001A6005E0FB68002283F834200223FB758F
:10220800FB7D18461837BD4680BD80B586B000AF47
:10221800F860B9607A603B600023FB75FB689B6DD2
:102228003B61FB6893F83430012B01D1022340E075
:10223800FB68012283F83420FB6893F83530DBB261
:10224800012B2FD1FB68022283F83520FB6800227E
:102258005A653B687A68B968F86800F0B9F9FB68AC
:10226800DB6D3F229A403B699A60FB681B681A68DD
:10227800FB681B6842F016021A60FB681B6C002B97
:1022880007D0FB681B681A68FB681B6842F00802E5
:102298001A60FB681B681A68FB681B6842F0010239
:1022A8001A6005E0FB68002283F834200223FB75DE
:1022B800FB7D18461837BD4680BD000080B586B046
:1022C80000AF78600023BB608E4B1B688E4AA2FB70
:1022D80003239B0A7B617B689B6D3B613B691B68A1
:1022E800FB607B68DB6D08229A40FB681340002B7B
:1022F8001AD07B681B681B6803F00403002B13D0FB
:102308007B681B681A687B681B6822F004021A60E5
:102318007B68DB6D08229A403B699A607B685B6D3D
:1023280043F001027B685A657B68DB6D01229A40A5
:10233800FB681340002B12D07B681B685B6903F0B5
:102348008003002B0BD07B68DB6D01229A403B6930
:102358009A607B685B6D43F002027B685A657B6814
:10236800DB6D04229A40FB681340002B12D07B6877
:102378001B681B6803F00203002B0BD07B68DB6D26
:1023880004229A403B699A607B685B6D43F00402C3
:102398007B685A657B68DB6D10229A40FB681340A6
:1023A800002B43D07B681B681B6803F00803002BD5
:1023B8003CD07B68DB6D10229A403B699A607B6851
:1023C8001B681B6803F48023002B18D07B681B68EC
:1023D8001B6803F40023002B08D17B681B6C002BBF
:1023E80024D07B681B6C786898471FE07B689B6CDF
:1023F800002B1BD07B689B6C7868984716E07B683D
:102408001B681B6803F48073002B07D17B681B686B
:102418001A687B681B6822F008021A607B681B6CCC
:10242800002B03D07B681B6C786898477B68DB6D52
:1024380020229A40FB681340002B00F08F807B68B5
:102448001B681B6803F01003002B00F087807B6873
:10245800DB6D20229A403B699A607B6893F835309F
:10246800DBB2052B36D17B681B681A687B681B6852
:1024780022F016021A607B681B685A697B681B6821
:1024880022F080025A617B681B6C002B03D17B68A9
:102498009B6C002B07D07B681B681A687B681B68DD
:1024A80022F008021A607B68DB6D3F229A403B6984
:1024B8009A607B68012283F835207B68002283F8C4
:1024C80034207B681B6D002B7ED07B681B6D786881
:1024D800984779E07B681B681B6803F48023002B0E
:1024E8001DD07B681B681B6803F40023002B0DD1EB
:1024F8007B685B6C002B31D07B685B6C7868984795
:102508002CE000BF00000020B5814E1B7B68DB6B10
:10251800002B23D07B68DB6B786898471EE07B68CC
:102528001B681B6803F48073002B0FD17B681B6842
:102538001A687B681B6822F010021A607B68012207
:1025480083F835207B68002283F834207B68DB6BB6
:10255800002B03D07B68DB6B786898477B685B6DE2
:10256800002B32D07B685B6D03F00103002B22D077
:102578007B68052283F835207B681B681A687B68AE
:102588001B6822F001021A60BB680133BB607A69DC
:102598009A4207D37B681B681B6803F00103002B72
:1025A800F2D100E000BF7B68012283F835207B6808
:1025B800002283F834207B68DB6C002B05D07B6815
:1025C800DB6C7868984700E000BF1837BD4680BDCF
:1025D80080B485B000AFF860B9607A603B60FB6892
:1025E8001B681A68FB681B6822F480221A60FB6863
:1025F8001B683A685A60FB689B68402B08D1FB68E7
:102608001B687A689A60FB681B68BA68DA6007E03A
:10261800FB681B68BA689A60FB681B687A68DA60AE
:1026280000BF1437BD465DF8047B704780B485B0A1
:1026380000AF78607B681B68DBB2103B144AA2FBD2
:1026480003231B09FB60134AFB6813441B781A46D3
:102658007B68DA65FB68032B09D97B681B6823F460
:102668007F7323F003031A1D7B689A6507E07B6874
:102678001B6823F47F7323F003037A6893657B68F0
:102688009B6D18461437BD465DF8047B704700BF44
:10269800ABAAAAAAA05E000880B485B000AF786093
:1026A8000023FB737B689B6ABB607B689B69002B7C
:1026B8001FD1BB68032B56D801A252F823F000BFE4
:1026C800D9260008EB260008D92600086F2700083D
:1026D8007B68DB6A03F08073002B46D00123FB7311
:1026E80043E07B68DB6AB3F1C07F40D10123FB7311
:1026F8003DE07B689B69B3F5005F21D1BB68032B84
:1027080037D801A252F823F021270008272700080C
:1027180021270008392700080123FB7330E07B6874
:10272800DB6A03F08073002B25D00123FB7322E0C2
:102738007B68DB6AB3F1C07F1FD10123FB731CE008
:10274800BB68022B03D9BB68032B03D018E0012315
:10275800FB7315E07B68DB6A03F08073002B0ED0F7
:102768000123FB730BE000BF0AE000BF08E000BFD5
:1027780006E000BF04E000BF02E000BF00E000BFC9
:10278800FB7B18461437BD465DF8047B704700BFD5
:1027980080B489B000AF7860396000237B61002382
:1027A8003B610023BB610023FB616BE10122FB69F4
:1027B80002FA03F37B613B681B687A6913403B614B
:1027C8003A697B699A4240F05A813B685B6803F03A
:1027D8000303012B05D03B685B6803F00303022B5E
:1027E80030D17B689B68BB61FB695B00032202FAFE
:1027F80003F3DB43BA691340BB613B68DA68FB69E2
:102808005B0002FA03F3BA691343BB617B68BA69D8
:102818009A607B685B68BB610122FB6902FA03F37B
:10282800DB43BA691340BB613B685B681B0903F073
:102838000102FB6902FA03F3BA691343BB617B68BF
:10284800BA695A603B685B6803F00303032B17D02F
:102858007B68DB68BB61FB695B00032202FA03F358
:10286800DB43BA691340BB613B689A68FB695B004C
:1028780002FA03F3BA691343BB617B68BA69DA6089
:102888003B685B6803F00303022B23D1FB69DA087A
:102898007B68083253F82230BB61FB6903F00703F9
:1028A8009B000F2202FA03F3DB43BA691340BB61B2
:1028B8003B681A69FB6903F007039B0002FA03F3FC
:1028C800BA691343BB61FB69DA087B680832B969E6
:1028D80043F822107B681B68BB61FB695B0003221D
:1028E80002FA03F3DB43BA691340BB613B685B68D8
:1028F80003F00302FB695B0002FA03F3BA691343AE
:10290800BB617B68BA691A603B685B6803F4403353
:10291800002B00F0B4800023FB60604B5B6C5F4AC7
:1029280043F4804353645D4B5B6C03F48043FB606A
:10293800FB685B4AFB699B08023352F82330BB6192
:10294800FB6903F003039B000F2202FA03F3DB4346
:10295800BA691340BB617B68524A93422BD07B68AB
:10296800514A934225D07B68504A93421FD07B68D6
:102978004F4A934219D07B684E4A934213D07B68E2
:102988004D4A93420DD07B684C4A934207D07B68EE
:102998004B4A934201D107230EE008230CE006239B
:1029A8000AE0052308E0042306E0032304E00223E9
:1029B80002E0012300E00023FA6902F0030292001A
:1029C8009340BA691343BB613549FB699B080233DD
:1029D800BA6941F823203B4B9B68BB613B69DB43E9
:1029E800BA691340BB613B685B6803F48013002B32
:1029F80003D0BA693B691343BB61324ABB69936030
:102A0800304BDB68BB613B69DB43BA691340BB6190
:102A18003B685B6803F40013002B03D0BA693B6979
:102A28001343BB61274ABB69D360264B5B68BB6114
:102A38003B69DB43BA691340BB613B685B6803F4DD
:102A48000033002B03D0BA693B691343BB611D4AAD
:102A5800BB6953601B4B1B68BB613B69DB43BA69AD
:102A68001340BB613B685B6803F48033002B03D0E1
:102A7800BA693B691343BB61124ABB691360FB69BE
:102A88000133FB61FB690F2B7FF690AE00BF00BFDF
:102A98002437BD465DF8047B704700BF003802400C
:102AA80000380140000002400004024000080240D3
:102AB800000C0240001002400014024000180240BE
:102AC800001C0240003C014080B483B000AF786035
:102AD8000B467B8013467B707B78002B03D07A886B
:102AE8007B689A6103E07B881A047B689A6100BF5F
:102AF8000C37BD465DF8047B7047000080B586B092
:102B080000AF78607B68002B01D1012367E27B6806
:102B18001B6803F00103002B75D0884B9B6803F0FA
:102B28000C03042B0CD0854B9B6803F00C03082B7B
:102B380012D1824B5B6803F48003B3F5800F0BD18D
:102B48007E4B1B6803F40033002B5BD07B685B680B
:102B5800002B57D1012342E27B685B68B3F5803FC5
:102B680006D1764B1B68754A43F4803313601DE029
:102B78007B685B68B3F5A02F0CD1704B1B686F4A5C
:102B880043F4802313606D4B1B686C4A43F4803315
:102B980013600BE0694B1B68684A23F480331360A9
:102BA800664B1B68654A23F4802313607B685B6867
:102BB800002B13D0FFF7FEF8386108E0FFF7FAF8AA
:102BC80002463B69D31A642B01D9032307E25B4B06
:102BD8001B6803F40033002BF0D014E0FFF7EAF889
:102BE800386108E0FFF7E6F802463B69D31A642B20
:102BF80001D90323F3E1514B1B6803F40033002B85
:102C0800F0D100E000BF7B681B6803F00203002BD3
:102C180063D04A4B9B6803F00C03002B0BD0474B47
:102C28009B6803F00C03082B1CD1444B5B6803F42E
:102C38008003002B16D1414B1B6803F00203002BC5
:102C480005D07B68DB68012B01D00123C7E13B4B32
:102C58001B6823F0F8027B681B69DB0037491343C4
:102C68000B603AE07B68DB68002B20D0344B0122F4
:102C78001A60FFF79FF8386108E0FFF79BF80246F3
:102C88003B69D31A022B01D90323A8E12B4B1B68FC
:102C980003F00203002BF0D0284B1B6823F0F80246
:102CA8007B681B69DB00254913430B6015E0244B47
:102CB80000221A60FFF77EF8386108E0FFF77AF81B
:102CC80002463B69D31A022B01D9032387E11B4B28
:102CD8001B6803F00203002BF0D17B681B6803F02C
:102CE8000803002B36D07B685B69002B16D0154B88
:102CF80001221A60FFF75EF8386108E0FFF75AF81A
:102D080002463B69D31A022B01D9032367E10B4B17
:102D18005B6F03F00203002BF0D01BE0094B00228D
:102D28001A60FFF747F838610EE0FFF743F80246EC
:102D38003B69D31A022B07D9032350E1003802401C
:102D480000004742800E4742884B5B6F03F0020346
:102D5800002BEAD17B681B6803F00403002B00F00A
:102D680097800023FB75814B1B6C03F08053002B6D
:102D78000FD10023BB607D4B1B6C7C4A43F0805312
:102D880013647A4B1B6C03F08053BB60BB68012350
:102D9800FB75774B1B6803F48073002B18D1744BB9
:102DA8001B68734A43F480731360FFF703F83861B4
:102DB80008E0FEF7FFFF02463B69D31A022B01D950
:102DC80003230CE16A4B1B6803F48073002BF0D0DB
:102DD8007B689B68012B06D1644B1B6F634A43F0E9
:102DE800010313671CE07B689B68052B0CD15F4BC4
:102DF8001B6F5E4A43F0040313675C4B1B6F5B4A0F
:102E080043F0010313670BE0584B1B6F574A23F03D
:102E180001031367554B1B6F544A23F004031367D0
:102E28007B689B68002B15D0FEF7C4FF38610AE069
:102E3800FEF7C0FF02463B69D31A41F2883293423B
:102E480001D90323CBE0494B1B6F03F00203002B8E
:102E5800EED014E0FEF7AEFF38610AE0FEF7AAFFF5
:102E680002463B69D31A41F28832934201D90323BF
:102E7800B5E03E4B1B6F03F00203002BEED1FB7D48
:102E8800012B05D1394B1B6C384A23F0805313644E
:102E98007B689B69002B00F0A180344B9B6803F092
:102EA8000C03082B5CD07B689B69022B41D1314B0A
:102EB80000221A60FEF77EFF386108E0FEF77AFF0D
:102EC80002463B69D31A022B01D9032387E0274B1B
:102ED8001B6803F00073002BF0D17B68DA697B680C
:102EE8001B6A1A437B685B6A9B011A437B689B6A6F
:102EF8005B08013B1B041A437B68DB6A1B061B4902
:102F080013434B601B4B01221A60FEF753FF3861D5
:102F180008E0FEF74FFF02463B69D31A022B01D99E
:102F280003235CE0114B1B6803F00073002BF0D007
:102F380054E0104B00221A60FEF73CFF386108E0AD
:102F4800FEF738FF02463B69D31A022B01D9032347
:102F580045E0064B1B6803F00073002BF0D13DE001
:102F68007B689B69012B07D1012338E000380240B8
:102F780000700040600047421B4B5B68FB607B6849
:102F88009B69012B28D0FB6803F480027B68DB690E
:102F98009A4221D1FB6803F03F027B681B6A9A4280
:102FA8001AD1FA6847F6C07313407A68526A9201D8
:102FB800934211D1FB6803F440327B689B6A5B083B
:102FC800013B1B049A4207D1FB6803F070627B68DF
:102FD800DB6A1B069A4201D0012300E00023184651
:102FE8001837BD4680BD00BF0038024080B584B0A8
:102FF80000AF786039607B68002B01D10123CCE0F9
:10300800684B1B6803F007033A689A420CD9654B72
:103018003A68D2B21A70634B1B6803F007033A6828
:103028009A4201D00123B8E07B681B6803F00203D1
:10303800002B20D07B681B6803F00403002B05D00D
:10304800594B9B68584A43F4E05393607B681B686C
:1030580003F00803002B05D0534B9B68524A43F4F6
:1030680060439360504B9B6823F0F0027B689B6839
:103078004D4913438B607B681B6803F00103002BE9
:1030880044D07B685B68012B07D1474B1B6803F46E
:103098000033002B19D101237FE07B685B68022B8A
:1030A80003D07B685B68032B07D13F4B1B6803F099
:1030B8000073002B09D101236FE03B4B1B6803F021
:1030C8000203002B01D1012367E0374B9B6823F0F3
:1030D80003027B685B68344913438B60FEF76AFE22
:1030E800F8600AE0FEF766FE0246FB68D31A41F272
:1030F8008832934201D903234FE02B4B9B6803F09E
:103108000C027B685B689B009A42EBD1254B1B68DD
:1031180003F007033A689A420CD2224B3A68D2B2BB
:103128001A70204B1B6803F007033A689A4201D0D3
:10313800012332E07B681B6803F00403002B08D0EE
:10314800194B9B6823F4E0527B68DB6816491343EC
:103158008B607B681B6803F00803002B09D0124BB7
:103168009B6823F460427B681B69DB000E491343AC
:103178008B6000F021F802460B4B9B681B0903F09B
:103188000F030A49CB5C22FA03F3094A1360094B7F
:103198001B681846FEF7CAFD002318461037BD46BF
:1031A80080BD00BF003C024000380240885E000835
:1031B80000000020040000202DE9B04F94B000AFBB
:1031C80000237B640023FB6400233B640023BB646F
:1031D800794B9B6803F00C03082B0DD0082B00F2E9
:1031E800E180002B02D0042B03D0DBE0734BBB64DF
:1031F800DBE0734BBB64D8E06F4B5B6803F03F03C5
:103208007B646D4B5B6803F48003002B63D06A4BCF
:103218005B689B090022BB63FA63BB6BC3F30803BB
:103228003B6300237B63D7E90C4522462B464FF0CE
:1032380000004FF00001590141EAD26150010246F5
:103248000B462146511A3961294663EB01037B611C
:103258004FF000024FF00003D7E904AB59468B0149
:10326800514643EA916351468A015146B2EB01083F
:10327800594663EB01094FF000024FF000034FEA93
:10328800C90343EA58734FEAC80290469946234651
:1032980018EB0303BB602B4649EB0303FB604FF0BD
:1032A80000024FF00003D7E9024529464B022146A8
:1032B80043EAD15321464A02104619467B6C002244
:1032C800BB62FA62D7E90A23FDF75EFC02460B46A9
:1032D8001346FB6458E0384B5B689B09002218468C
:1032E8001146C0F308033B6200237B62D7E90889D3
:1032F80042464B464FF000004FF00001590141EAA9
:10330800D261500102460B464146B2EB010A4946DA
:1033180063EB010B4FF000024FF000034FEA8B13F1
:1033280043EA9A634FEA8A12B2EB0A0463EB0B058D
:103338004FF000024FF00003EB0043EA5473E20041
:1033480014461D464346E3183B604B4645EB0303D2
:103358007B604FF000024FF00003D7E90045294693
:103368008B02214643EA915321468A0210461946A8
:103378007B6C0022BB61FA61D7E90623FDF704FCE8
:1033880002460B461346FB640B4B5B681B0C03F0B1
:10339800030301335B003B64FA6C3B6CB2FBF3F351
:1033A800BB6402E0054BBB6400BFBB6C18465037DA
:1033B800BD46BDE8B08F00BF003802400024F400CD
:1033C80000127A0080B400AF034B1B681846BD4654
:1033D8005DF8047B704700BF0000002080B500AF97
:1033E800FFF7F0FF0246054B9B689B0A03F00703B3
:1033F8000349CB5C22FA03F3184680BD003802402B
:10340800985E000880B500AFFFF7DCFF0246054B69
:103418009B685B0B03F007030349CB5C22FA03F3B9
:10342800184680BD00380240985E000880B582B01A
:1034380000AF78607B68002B01D1012341E07B68F5
:1034480093F83D30DBB2002B06D17B68002283F86D
:103458003C207868FEF730FA7B68022283F83D202A
:103468007B681A687B6804331946104600F0B2FB83
:103478007B68012283F846207B68012283F83E207E
:103488007B68012283F83F207B68012283F8402073
:103498007B68012283F841207B68012283F842205F
:1034A8007B68012283F843207B68012283F844204B
:1034B8007B68012283F845207B68012283F83D2040
:1034C800002318460837BD4680BD000080B485B08B
:1034D80000AF78607B6893F83D30DBB2012B01D0F8
:1034E800012346E07B68022283F83D207B681B6845
:1034F800234A934222D07B681B68B3F1804F1DD0CA
:103508007B681B681F4A934218D07B681B681E4A59
:10351800934213D07B681B681C4A93420ED07B6889
:103528001B681B4A934209D07B681B68194A93425F
:1035380004D07B681B68184A934211D17B681B68CA
:103548009B6803F00703FB60FB68062B10D07B68C1
:103558001B681A687B681B6842F001021A6007E062
:103568007B681B681A687B681B6842F001021A6056
:10357800002318461437BD465DF8047B704700BF2A
:10358800000001400004004000080040000C00401A
:1035980000040140004001400018004080B582B09E
:1035A80000AF78607B68002B01D1012341E07B6884
:1035B80093F83D30DBB2002B06D17B68002283F8FC
:1035C8003C20786800F039F87B68022283F83D20B7
:1035D8007B681A687B6804331946104600F0FAFACB
:1035E8007B68012283F846207B68012283F83E200D
:1035F8007B68012283F83F207B68012283F8402002
:103608007B68012283F841207B68012283F84220ED
:103618007B68012283F843207B68012283F84420D9
:103628007B68012283F845207B68012283F83D20CE
:10363800002318460837BD4680BD80B483B000AF6C
:10364800786000BF0C37BD465DF8047B704700000A
:1036580080B584B000AF786039603B68002B09D131
:103668007B6893F83E30DBB2012B14BF01230023A3
:10367800DBB222E03B68042B09D17B6893F83F302A
:10368800DBB2012B14BF01230023DBB215E03B683A
:10369800082B09D17B6893F84030DBB2012B14BFAB
:1036A80001230023DBB208E07B6893F84130DBB2EA
:1036B800012B14BF01230023DBB2002B01D001230F
:1036C8007CE03B68002B04D17B68022283F83E2013
:1036D80013E03B68042B04D17B68022283F83F2067
:1036E8000BE03B68082B04D17B68022283F840205A
:1036F80003E07B68022283F841207B681B68012273
:103708003968184600F05CFD7B681B682D4A9342B7
:1037180004D07B681B682C4A934201D1012300E046
:103728000023002B07D07B681B685A6C7B681B68DA
:1037380042F400425A647B681B68224A934222D0B2
:103748007B681B68B3F1804F1DD07B681B681F4ADC
:10375800934218D07B681B681D4A934213D07B683C
:103768001B681C4A93420ED07B681B68164A93421A
:1037780009D07B681B68184A934204D07B681B6891
:10378800164A934211D17B681B689B6803F00703B4
:10379800FB60FB68062B10D07B681B681A687B6887
:1037A8001B6842F001021A6007E07B681B681A6810
:1037B8007B681B6842F001021A6000231846103724
:1037C800BD4680BD000001400004014000040040E7
:1037D80000080040000C0040004001400018004074
:1037E80080B582B000AF786039607B681B680022C2
:1037F8003968184600F0E4FC7B681B682E4A93423F
:1038080004D07B681B682D4A934201D1012300E054
:103818000023002B17D07B681B681A6A41F211132A
:103828001340002B0FD17B681B681A6A40F244438F
:103838001340002B07D17B681B685A6C7B681B6898
:1038480022F400425A647B681B681A6A41F2111319
:103858001340002B0FD17B681B681A6A40F244435F
:103868001340002B07D17B681B681A687B681B68AC
:1038780022F001021A603B68002B04D17B68012208
:1038880083F83E2013E03B68042B04D17B680122B7
:1038980083F83F200BE03B68082B04D17B680122AA
:1038A80083F8402003E07B68012283F8412000234D
:1038B80018460837BD4680BD00000140000401409D
:1038C80080B586B000AFF860B9607A600023FB75F8
:1038D800FB6893F83C30012B01D10223AEE0FB6872
:1038E800012283F83C207B680C2B00F29F8001A208
:1038F80052F823F031390008353A0008353A000803
:10390800353A000871390008353A0008353A000898
:10391800353A0008B3390008353A0008353A000846
:10392800353A0008F3390008FB681B68B96818467F
:1039380000F0FCF9FB681B689A69FB681B6842F099
:1039480008029A61FB681B689A69FB681B6822F089
:1039580004029A61FB681B689969BB681A69FB686D
:103968001B680A439A6164E0FB681B68B9681846DB
:1039780000F04CFAFB681B689A69FB681B6842F404
:1039880000629A61FB681B689A69FB681B6822F4ED
:1039980080629A61FB681B689969BB681B691A0297
:1039A800FB681B680A439A6143E0FB681B68B968B7
:1039B800184600F0A1FAFB681B68DA69FB681B6807
:1039C80042F00802DA61FB681B68DA69FB681B6869
:1039D80022F00402DA61FB681B68D969BB681A69BE
:1039E800FB681B680A43DA6123E0FB681B68B96857
:1039F800184600F0F5FAFB681B68DA69FB681B6873
:103A080042F40062DA61FB681B68DA69FB681B68CC
:103A180022F48062DA61FB681B68D969BB681B699C
:103A28001A02FB681B680A43DA6102E00123FB758E
:103A380000BFFB68002283F83C20FB7D184618373E
:103A4800BD4680BD80B584B000AF78603960002382
:103A5800FB737B6893F83C30012B01D10223B4E05F
:103A68007B68012283F83C207B68022283F83D2092
:103A78007B681B689B68BB60BB6823F07703BB60EF
:103A8800BB6823F47F43BB607B681B68BA689A6095
:103A98003B681B68B3F5005F3ED0B3F5005F00F2EA
:103AA8008780B3F5805F00F08680B3F5805F7FD8AC
:103AB800702B1AD0702B7BD8602B50D0602B77D806
:103AC800502B3CD0502B73D8402B58D0402B6FD85C
:103AD800302B64D0302B6BD8202B60D0202B67D8AC
:103AE800002B5CD0102B5AD062E07B6818683B68CA
:103AF80099683B685A683B68DB6800F041FB7B6863
:103B08001B689B68BB60BB6843F07703BB607B683E
:103B18001B68BA689A604FE07B6818683B689968C8
:103B28003B685A683B68DB6800F02AFB7B681B68C7
:103B38009A687B681B6842F480429A603CE07B6824
:103B480018683B6859683B68DB681A4600F09EFABB
:103B58007B681B685021184600F0F7FA2CE07B6858
:103B680018683B6859683B68DB681A4600F0BDFA7C
:103B78007B681B686021184600F0E7FA1CE07B6848
:103B880018683B6859683B68DB681A4600F07EFA9B
:103B98007B681B684021184600F0D7FA0CE07B6868
:103BA8001A683B681B681946104600F0CEFA03E015
:103BB8000123FB7300E000BF7B68012283F83D20EE
:103BC8007B68002283F83C20FB7B18461037BD46F3
:103BD80080BD000080B485B000AF786039607B6834
:103BE8001B68FB607B68464A934213D07B68B3F13D
:103BF800804F0FD07B68434A93420BD07B68424A80
:103C0800934207D07B68414A934203D07B68404A7D
:103C1800934208D1FB6823F07003FB603B685B6844
:103C2800FA681343FB607B68354A93422BD07B6864
:103C3800B3F1804F27D07B68324A934223D07B6808
:103C4800314A93421FD07B68304A93421BD07B682D
:103C58002F4A934217D07B682E4A934213D07B6831
:103C68002D4A93420FD07B682C4A93420BD07B6835
:103C78002B4A934207D07B682A4A934203D07B6839
:103C8800294A934208D1FB6823F44073FB603B68E0
:103C9800DB68FA681343FB60FB6823F080023B682B
:103CA8005B691343FB607B68FA681A603B689A6833
:103CB8007B68DA623B681A687B689A627B68104A9C
:103CC800934203D07B68124A934203D13B681A6936
:103CD8007B681A637B6801225A617B681B6903F061
:103CE8000103012B05D17B681B6923F001027B6866
:103CF8001A6100BF1437BD465DF8047B704700BFEA
:103D0800000001400004004000080040000C004092
:103D180000040140004001400044014000480140C7
:103D280000180040001C00400020004080B487B00C
:103D380000AF786039607B681B6A7B617B681B6AAF
:103D480023F001027B681A627B685B683B617B68D1
:103D58009B69FB60FB6823F07003FB60FB6823F042
:103D68000303FB603B681B68FA681343FB607B69CD
:103D780023F002037B613B689B687A6913437B618C
:103D88007B68204A934203D07B681F4A93420CD138
:103D98007B6923F008037B613B68DB687A6913431E
:103DA8007B617B6923F004037B617B68154A93423E
:103DB80003D07B68144A934211D13B6923F4807382
:103DC8003B613B6923F400733B613B685B693A697B
:103DD80013433B613B689B693A6913433B617B68CA
:103DE8003A695A607B68FA689A613B685A687B68E6
:103DF8005A637B687A691A6200BF1C37BD465DF852
:103E0800047B7047000001400004014080B487B083
:103E180000AF786039607B681B6A7B617B681B6ACE
:103E280023F010027B681A627B685B683B617B68E1
:103E38009B69FB60FB6823F4E043FB60FB6823F4A9
:103E48004073FB603B681B681B02FA681343FB6006
:103E58007B6923F020037B613B689B681B017A69BF
:103E680013437B617B68224A934203D07B68214AD3
:103E780093420DD17B6923F080037B613B68DB684B
:103E88001B017A6913437B617B6923F040037B61E3
:103E98007B68174A934203D07B68164A934213D132
:103EA8003B6923F480633B613B6923F400633B6116
:103EB8003B685B699B003A6913433B613B689B69BC
:103EC8009B003A6913433B617B683A695A607B6897
:103ED800FA689A613B685A687B689A637B687A6972
:103EE8001A6200BF1C37BD465DF8047B704700BFEF
:103EF800000001400004014080B487B000AF786042
:103F080039607B681B6A7B617B681B6A23F480725B
:103F18007B681A627B685B683B617B68DB69FB6076
:103F2800FB6823F07003FB60FB6823F00303FB606E
:103F38003B681B68FA681343FB607B6923F40073D2
:103F48007B613B689B681B027A6913437B617B68D2
:103F5800214A934203D07B68204A93420DD17B6962
:103F680023F400637B613B68DB681B027A691343B7
:103F78007B617B6923F480637B617B68164A93428B
:103F880003D07B68154A934213D13B6923F48053CD
:103F98003B613B6923F400533B613B685B691B0150
:103FA8003A6913433B613B689B691B013A691343B8
:103FB8003B617B683A695A607B68FA68DA613B68FA
:103FC8005A687B68DA637B687A691A6200BF1C37B3
:103FD800BD465DF8047B70470000014000040140C5
:103FE80080B487B000AF786039607B681B6A3B613A
:103FF8007B681B6A23F480527B681A627B685B6863
:104008007B617B68DB69FB60FB6823F4E043FB6052
:10401800FB6823F44073FB603B681B681B02FA686B
:104028001343FB603B6923F400533B613B689B6887
:104038001B033A6913433B617B68124A934203D0DE
:104048007B68114A934209D17B6923F480437B61E1
:104058003B685B699B017A6913437B617B687A697A
:104068005A607B68FA68DA613B685A687B681A6448
:104078007B683A691A6200BF1C37BD465DF8047B4D
:10408800704700BF000001400004014080B487B0C1
:1040980000AFF860B9607A60FB681B6A7B61FB68F7
:1040A8001B6A23F00102FB681A62FB689B693B618B
:1040B8003B6923F0F0033B617B681B013A691343BA
:1040C8003B617B6923F00A037B617A69BB68134310
:1040D8007B61FB683A699A61FB687A691A6200BF7A
:1040E8001C37BD465DF8047B704780B487B000AFCD
:1040F800F860B9607A60FB681B6A7B61FB681B6AC1
:1041080023F01002FB681A62FB689B693B613B69FC
:1041180023F470433B617B681B033A6913433B619B
:104128007B6923F0A0037B61BB681B017A69134399
:104138007B61FB683A699A61FB687A691A6200BF19
:104148001C37BD465DF8047B704780B485B000AF6E
:10415800786039607B689B68FB60FB6823F07003BC
:10416800FB603A68FB68134343F00703FB607B6816
:10417800FA689A6000BF1437BD465DF8047B704743
:1041880080B487B000AFF860B9607A603B60FB68C4
:104198009B687B617B6923F47F437B613B681A02E0
:1041A8007B681A43BB6813437A6913437B61FB68D6
:1041B8007A699A6000BF1C37BD465DF8047B70477A
:1041C80080B487B000AFF860B9607A60BB6803F06C
:1041D8001F03012202FA03F37B61FB681A6A7B69F9
:1041E800DB431A40FB681A62FB681A6ABB6803F073
:1041F8001F03796801FA03F31A43FB681A6200BFC8
:104208001C37BD465DF8047B7047000080B485B05C
:1042180000AF786039607B6893F83C30012B01D19E
:1042280002235AE07B68012283F83C207B68022243
:1042380083F83D207B681B685B68FB607B681B68B4
:104248009B68BB60FB6823F07003FB603B681B68DE
:10425800FA681343FB607B681B68FA685A607B68DE
:104268001B68214A934222D07B681B68B3F1804FB8
:104278001DD07B681B681D4A934218D07B681B6859
:104288001B4A934213D07B681B681A4A93420ED08C
:104298007B681B68184A934209D07B681B68174AD9
:1042A800934204D07B681B68154A93420CD1BB68C3
:1042B80023F08003BB603B685B68BA681343BB604C
:1042C8007B681B68BA689A607B68012283F83D2086
:1042D8007B68002283F83C20002318461437BD462B
:1042E8005DF8047B704700BF0000014000040040F7
:1042F80000080040000C004000040140004001405C
:104308000018004080B582B000AF78607B68002B51
:1043180001D1012342E07B6893F84130DBB2002BE6
:1043280006D17B68002283F840207868FDF7A4FB5B
:104338007B68242283F841207B681B68DA687B68E5
:104348001B6822F40052DA60786800F069FB7B6829
:104358001B681A697B681B6822F490421A617B68A3
:104368001B685A697B681B6822F02A025A617B68BD
:104378001B68DA687B681B6842F40052DA607B6865
:1043880000225A647B68202283F841207B6820221F
:1043980083F842207B6800225A63002318460837B6
:1043A800BD4680BD80B58CB000AFF860B9601346DB
:1043B800FB80FB6893F84130DBB2202B56D1BB68F9
:1043C800002B02D0FB88002B01D101234FE0BA68F3
:1043D800FB681A62FB68FA889A84FB68FA88DA84B0
:1043E800FB6800225A64FB68212283F84120FB689D
:1043F8009B6B214ADA63FB689B6B204A1A64FB6853
:104408009B6B1F4ADA64FB689B6B00221A6507F1F5
:104418000803FB62FB68986BFB6A1968FB681B68FA
:1044280004331A46FB88FDF7F0FEFB681B686FF043
:1044380040021A60FB681B681433BB61BB6953E810
:10444800003F7B617B6943F08003BB62FB681B68AC
:104458001433BA6A7A623B62396A7A6A41E800239D
:10446800FB61FB69002BE5D1002300E0022318461D
:104478003037BD4680BD00BF2B450008C545000844
:104488004947000880B584B000AFF860B9601346AA
:10449800FB80FB6893F84230DBB2202B12D1BB685B
:1044A800002B02D0FB88002B01D101230BE0FB6815
:1044B80000221A63FB881A46B968F86800F08AF97E
:1044C800034600E0022318461037BD4680BD80B47D
:1044D80083B000AF786000BF0C37BD465DF8047B41
:1044E800704780B483B000AF786000BF0C37BD461A
:1044F8005DF8047B704780B483B000AF786000BF7C
:104508000C37BD465DF8047B704780B483B000AFBC
:1045180078600B467B8000BF0C37BD465DF8047B96
:10452800704780B590B000AF78607B689B6BFB6389
:104538007B681B681B6803F48073002B37D1FB6B07
:104548000022DA84FB6B1B6814337B627B6A53E8B6
:10455800003F3B623B6A23F08003BB63FB6B1B6835
:104568001433BA6B3A63FB62F96A3A6B41E8002389
:10457800BB62BB6A002BE5D1FB6B1B680C333B614C
:104588003B6953E8003FFB60FB6843F040037B63F3
:10459800FB6B1B680C337A6BFA61BB61B969FA690A
:1045A80041E800237B617B69002BE5D102E0F86BD1
:1045B800FCF7C0FD00BF4037BD4680BD80B584B064
:1045C80000AF78607B689B6BFB60F868FFF77FFF44
:1045D80000BF1037BD4680BD80B59CB000AF786085
:1045E8007B689B6BFB667B681B681B6803F48073A6
:1045F800002B72D1FB6E0022DA85FB6E1B680C3330
:10460800FB64FB6C53E8003FBB64BB6C23F4807312
:10461800BB66FB6E1B680C33BA6EBA657B65796D39
:10462800BA6D41E800233B653B6D002BE5D1FB6E7D
:104638001B681433BB63BB6B53E8003F7B637B6B26
:1046480023F001037B66FB6E1B6814337A6E7A6471
:104658003B64396C7A6C41E80023FB63FB6B002BED
:10466800E5D1FB6E1B6814337B627B6A53E8003F1D
:104678003B623B6A23F040033B66FB6E1B681433C6
:104688003A6E3A63FB62F96A3A6B41E80023BB620F
:10469800BB6A002BE5D1FB6E202283F84220FB6E1B
:1046A8001B6B012B19D1FB6E1B680C333B613B69FB
:1046B80053E8003FFB60FB6823F01003FB65FB6ECB
:1046C8001B680C33FA6DFA61BB61B969FA6941E894
:1046D80000237B617B69002BE5D1FB6E00225A63C6
:1046E800FB6E1B6B012B06D1FB6E9B8D1946F86E7A
:1046F800FFF70BFF02E0F86EFCF7FCFC00BF703719
:10470800BD4680BD80B584B000AF78607B689B6B88
:10471800FB60FB6801225A63FB681B6B012B08D105
:10472800FB689B8D5B089BB21946F868FFF7EDFEA6
:1047380002E0F868FFF7D5FE00BF1037BD4680BD20
:1047480080B584B000AF78600023FB607B689B6B0A
:10475800BB60BB681B685B6903F08003802B0CBFE0
:1047680001230023DBB2FB60BB6893F84130DBB266
:10477800212B08D1FB68002B05D0BB680022DA8406
:10478800B86800F0C1F8BB681B685B6903F04003B8
:10479800402B0CBF01230023DBB2FB60BB6893F8FE
:1047A8004230DBB2222B08D1FB68002B05D0BB6856
:1047B8000022DA85B86800F0CFF8BB685B6C43F07C
:1047C8001002BB685A64B868FFF795FE00BF10373F
:1047D800BD4680BD80B598B000AFF860B96013469B
:1047E800FB80BA68FB689A62FB68FA889A85FB685E
:1047F80000225A64FB68222283F84220FB68DB6BA4
:104808003E4ADA63FB68DB6B3D4A1A64FB68DB6B84
:104818003C4ADA64FB68DB6B00221A6507F108037F
:10482800FB65FB68D86BFB681B6804331946FB6D96
:104838001A68FB88FDF7E9FC00233B61FB681B68ED
:104848001B683B61FB681B685B683B613B69FB68F5
:104858001B69002B19D0FB681B680C333B643B6C4D
:1048680053E8003FFB63FB6B43F48073BB65FB6855
:104878001B680C33BA6DFA64BB64B96CFA6C41E816
:1048880000237B647B6C002BE5D1FB681B68143329
:10489800FB62FB6A53E8003FBB62BB6A43F001035B
:1048A8007B65FB681B6814337A6DBA637B63796B2D
:1048B800BA6B41E800233B633B6B002BE5D1FB68F7
:1048C8001B681433BB61BB6953E8003F7B617B699C
:1048D80043F040033B65FB681B6814333A6D7A620A
:1048E8003B62396A7A6A41E80023FB61FB69002B65
:1048F800E5D1002318466037BD4680BDE145000874
:104908000D4700084947000880B489B000AF7860B7
:104918007B681B680C33FB60FB6853E8003FBB6097
:10492800BB6823F0C003FB617B681B680C33FA6922
:10493800BA617B617969BA6941E800233B613B69E7
:10494800002BE5D17B68202283F8412000BF243763
:10495800BD465DF8047B704780B495B000AF7860C1
:104968007B681B680C337B637B6B53E8003F3B63BE
:104978003B6B23F49073FB647B681B680C33FA6C05
:104988003A64FB63F96B3A6C41E80023BB63BB6B89
:10499800002BE5D17B681B6814333B623B6A53E804
:1049A800003FFB61FB6923F00103BB647B681B6864
:1049B8001433BA6CFA62BB62B96AFA6A41E8002336
:1049C8007B627B6A002BE5D17B681B6B012B19D1BD
:1049D8007B681B680C33FB60FB6853E8003FBB60D7
:1049E800BB6823F010037B647B681B680C337A6C0C
:1049F800BA617B617969BA6941E800233B613B6927
:104A0800002BE5D17B68202283F842207B680022B6
:104A18001A6300BF5437BD465DF8047B7047000039
:104A28002DE9B04FC0B000AFC7F8F400D7F8F430A4
:104A38001B681B6923F44050D7F8F430D968D7F8BD
:104A4800F4301A6840EA01031361D7F8F4309A6821
:104A5800D7F8F4301B691A43D7F8F4305B691A4366
:104A6800D7F8F430DB691343C7F8F830D7F8F430D7
:104A78001B68DB6823F4164121F00C01D7F8F430E9
:104A88001A68D7F8F8300B43D360D7F8F4301B68AE
:104A98005B6923F44070D7F8F4309969D7F8F4309B
:104AA8001A6840EA01035361D7F8F4301A688F4B4B
:104AB8009A4205D0D7F8F4301A688D4B9A4204D13F
:104AC800FEF7A0FCC7F8FC0003E0FEF787FCC7F878
:104AD800FC00D7F8F430DB69B3F5004F40F00C81E7
:104AE800D7F8FC300022C7F8E830C7F8EC20D7E93F
:104AF8003A4522462B469118B9655B41FB65D7E9D3
:104B08001623214612EB0108294643EB01094FF011
:104B180000024FF000034FEAC90343EA58734FEA13
:104B2800C80290469946234618EB0303C7F8E030BD
:104B38002B4649EB0303C7F8E430D7F8F4305B6839
:104B48000022C7F8D830C7F8DC20D7E936120B4660
:104B5800DB183B65134642EB03037B65D7E9142357
:104B6800D7E93801FCF710F802460B46614BA3FB66
:104B780002235B091C01D7F8FC300022C7F8D030AB
:104B8800C7F8D420D7E9348942464B469118B9640E
:104B98005B41FB64D7E91223414612EB010A4946FF
:104BA80043EB010B4FF000024FF000034FEACB0339
:104BB80043EA5A734FEACA0292469B4643461AEBA7
:104BC8000303C7F8C8304B464BEB0303C7F8CC3098
:104BD800D7F8F4305B680022C7F8C030C7F8C420A3
:104BE800D7E930120B46DB183B64134642EB03034C
:104BF8007B64D7E91023D7E93201FBF7C5FF0246EA
:104C08000B4611463B4BA3FB01235B09642202FBC5
:104C180003F3CB1ADB0003F13202364BA3FB02236A
:104C28005B095B0003F4F8731C44D7F8FC300022DE
:104C3800C7F8B830C7F8BC20D7E92E8942464B469A
:104C48009118B9635B41FB63D7E90E2341465118BC
:104C5800396349464B417B634FF000024FF0000334
:104C6800D7E90CAB5946CB00514643EA517351463C
:104C7800CA0010461946034642469B18C7F8B0308A
:104C88004B460A4642EB0303C7F8B430D7F8F43072
:104C98005B680022C7F8A830C7F8AC20D7E92A1209
:104CA8000B46DB18BB62134642EB0303FB62D7E9F2
:104CB8000A23D7E92C01FBF767FF02460B460D4B89
:104CC800A3FB02135B09642101FB03F3D31ADB0086
:104CD8003233084AA2FB03235B0903F00702D7F823
:104CE800F4301B6822449A6006E100BF00100140BE
:104CF800001401401F85EB51D7F8FC300022C7F89B
:104D0800A030C7F8A420D7E9288942464B46911815
:104D180039625B417B62D7E908234146541849460A
:104D280043EB01054FF000024FF00003EB0043EAAC
:104D38005473E20014461D464346E318C7F89830FA
:104D48004B4645EB0303C7F89C30D7F8F4305B6853
:104D58000022C7F89030C7F894204FF000024FF0B7
:104D68000003D7E9244529468B00214643EA91737D
:104D780021468A00D7E92601FBF706FF02460B46C3
:104D8800604BA3FB02235B091C01D7F8FC3000220F
:104D9800C7F88830C7F88C20D7E9228942464B46A5
:104DA8009118B9615B41FB61D7E906234146511867
:104DB800396149464B417B614FF000024FF00003D7
:104DC800D7E904AB5946CB00514643EA51735146E3
:104DD800CA0010461946034642469B18C7F8803059
:104DE8004B460A4642EB0303C7F88430D7F8F43041
:104DF8005B680022BB67FA674FF000024FF00003C0
:104E0800D7E91E8949468B00414643EA91734146DA
:104E18008A00D7E92001FBF7B7FE02460B46114688
:104E2800384BA3FB01235B09642202FB03F3CB1A73
:104E38001B013233334AA2FB03235B0903F0F0035F
:104E48001C44D7F8FC3000223B677A67D7E91C89F5
:104E580042464B469118B9605B41FB60D7E9022393
:104E680041465118396049464B417B604FF000027A
:104E78004FF00003D7E900AB5946CB00514643EA4F
:104E880051735146CA0010461946034642469B18BC
:104E9800BB664B460A4642EB0303FB66D7F8F43081
:104EA8005B6800223B667A664FF000024FF0000311
:104EB800D7E9188949468B00414643EA9173414630
:104EC8008A00D7E91A01FBF75FFE02460B460D4B35
:104ED800A3FB02135B09642101FB03F3D31A1B0133
:104EE8003233084AA2FB03235B0903F00F02D7F809
:104EF800F4301B6822449A6000BF07F58077BD46EE
:104F0800BDE8B08F1F85EB5102440346934200D1A0
:104F1800704703F8011BF9E7014B1868704700BF99
:104F28000C00002070B50D4D0D4C641BA41000261C
:104F3800A64209D10B4D0C4C00F078FF641BA4105D
:104F48000026A64205D170BD55F8043B98470136A6
:104F5800EEE755F8043B98470136F2E7E05E0008B3
:104F6800E05E0008E05E0008E45E0008F8B52DED9C
:104F7800028BB0EE408AF0EE608A55EC114B00F0DF
:104F880073F822462B462046294657EC106BFBF750
:104F980075FD00283BD151EC180B00220023FBF7CC
:104FA8003BFDB8B10022002320462946FBF734FD1B
:104FB800002846D145EC104B00F048F838B30022E1
:104FC800002320462946FBF731FD00B3FFF7A4FF75
:104FD80022231BE047EC106B00F038F8E0B9B0EE84
:104FE800480AF0EE680A00F031F8A8B145EC104B19
:104FF80000F02CF880B132463B4630463946FBF784
:105008003DFD0028E2D0FFF787FF21230360BDECB8
:10501800028B47EC106BF8BD00220023304639465E
:10502800FBF7FAFC0028F2D0B0EE480AF0EE680A66
:1050380000F00CF80028EAD045EC104B00F006F818
:10504800C3E7014F0026E2E70000F03F82B08DED94
:10505800000B019840F0004000F58010C00F02B02E
:1050680070470000000000002DE9F04F91B08DED71
:10507800001BDDE9001929F0004A5AEA010057EC43
:10508800106B13D1B31987F4002252419842984B00
:10509800934180F0EA84DDE9002330463946FBF786
:1050A8009DF841EC100B11B0BDE8F08F914A27F044
:1050B800004890453D46334606D801D1002EEAD136
:1050C800924501D80ED169B105F1404505F5801525
:1050D8001D43E0D1DDE90032DB1882F400225241A1
:1050E8009D42D4E7002DC3463ADA834A92454DD80B
:1050F800A2F15472924540F2C7844FEA2A52A2F2B2
:10510800FF32142A0FDDC2F1340221FA02F404FA44
:1051180002F28A4240F0B88404F00104C4F10204A7
:10512800002958D10EE0002954D1C2F114024AFADC
:1051380002F404FA02F2524540F0A38404F0010498
:10514800C4F102046D4A92452ED1B9F1000F80F2E4
:1051580094846A4932463B460020FBF71FFBA0E7D0
:105168000024C1BB634A9245ECD108F1404202F5E4
:1051780080121A4300F07984614B984508D9B9F137
:10518800000FC0F27684DDE900018AE70224E8E72F
:10519800B9F1000F4FF000004FF0000181DADDE9AE
:1051A800000303F100417CE7B9F1804F06D1324694
:1051B8003B4630463946FBF7C7F972E7514A9145F5
:1051C80009D1002D07DB47EC106B11B0BDE8F04F9B
:1051D80000F052BD002447EC106B029300F088FCED
:1051E800029B51EC100B53BB444B25F040429A42B2
:1051F80002D0B8F1000F22D1B9F1000F05DA02464A
:105208000B4600203D49FBF7C9FA002DBFF649AF10
:1052180008F1404808F5801858EA040808D1024601
:105228000B4610461946FAF7D7FF02460B4694E795
:10523800012C7FF436AF01F10043194631E7EB0F3B
:10524800013B53EA040202D132463B46E9E7013CFE
:105258001C4316D09FED227BBAF1844F8DED027B63
:1052680040F21281284B9A45254B16D998450BD800
:10527800B9F1000F0BDA002011B0BDE8F04F00F0D3
:10528800F3BC9FED197BE7E7B9F1000FF3DC0020D1
:1052980011B0BDE8F04F00F0DFBC98450CD2DDE955
:1052A800020100220023FBF7C1FB003818BF0120D0
:1052B800B9F1000FECDADFE7104B98454FF0000228
:1052C80024D9DDE902010023FBF7B0FB003818BF41
:1052D8000120B9F1000FCFDCDAE700BFAFF300809F
:1052E800000000000000F03F000000000000F0BFD8
:1052F8000000F0FF0000F07FFFFF3F430000F03F99
:10530800FFFFEF3F0000E03F0000F0435A4BFAF781
:1053180063FF51A3D3E9002304460D46FBF714F9B4
:105328004FA3D3E9002306460F4620462946FBF73C
:105338000BF9524B82468B46002220462946FBF742
:1053480003F902460B4648A1D1E90001FAF744FFE8
:1053580022462B46FBF7F8F802460B460020484940
:10536800FAF73AFF2246804689462B4620462946C8
:10537800FBF7EAF802460B4640464946FBF7E4F8D5
:105388003BA3D3E90023FBF7DFF802460B46504660
:105398005946FAF721FF02460B46804689463046B1
:1053A8003946FAF71BFF002432463B4620460D4695
:1053B800FAF712FF02460B4640464946FAF70CFF39
:1053C800DDE90023CDE9042300230493DDE904ABE0
:1053D80006460F4652465B46DDE90001FAF7FCFE39
:1053E80022462B46FBF7B0F8DDE9002380468946C4
:1053F80030463946FBF7A8F802460B464046494670
:10540800FAF7ECFE52465B4606460F46204629460A
:10541800FBF79AF80B4602468046894630463946DD
:10542800FAF7DCFE174B994204460D468A468B462E
:1054380040F3EF8201F13F4303F5E003034300F03B
:10544800E881DDE9020100220023FBF7EFFA0038CA
:1054580018BF012010E700BF000000604715F73FA4
:1054680044DF5DF80BAE543E555555555555D53F5F
:10547800FE822B654715F73F0000F03F0000D03F44
:105488000000E03FFFFF8F40D54B2B4000222BB997
:10549800D44BFBF759F86FF034028B464FEA2B5385
:1054A800A3F2FF3313440A93CF4BCBF3130B4BF008
:1054B8007F559B4545F4401508DDCC4B9B4540F393
:1054C800A5810A9B01330A93A5F580154FF0000AC0
:1054D8004FEACA030B93C64B03EBCA0393ED007B59
:1054E800294653EC172B8DED067BCDE90801FAF719
:1054F80073FEDDE9082306460F46DDE90601FAF7E3
:105508006DFE02460B460020BA49FBF747F9CDE984
:105518000C0102460B4630463946FBF715F8CDE933
:105528000401DDE904BC6D1045F000554FF0000B97
:1055380005F500256146002205EB8A435846E146F9
:10554800CDE90EBC14461D46FAF7FEFF02460B468F
:1055580030463946FAF740FEDDE9062306460F468F
:1055680020462946FAF738FE02460B46DDE90801CF
:10557800FAF732FE5A464B46FAF7E6FF02460B4662
:1055880030463946FAF728FEDDE90C23FAF7DCFF46
:10559800DDE90423CDE9060110461946FAF7D4FFE0
:1055A8007DA3D3E9002304460D46FAF7CDFF7CA37B
:1055B800D3E90023FAF712FE22462B46FAF7C4FF76
:1055C80079A3D3E90023FAF709FE22462B46FAF716
:1055D800BBFF77A3D3E90023FAF700FE22462B4648
:1055E800FAF7B2FF74A3D3E90023FAF7F7FD2246CE
:1055F8002B46FAF7A9FF72A3D3E90023FAF7EEFDC9
:10560800224606460F462B4620462946FAF79CFFB7
:1056180002460B4630463946FAF796FF5A46044684
:105628000D464B46DDE90401FAF7D8FDDDE906230E
:10563800FAF78AFF22462B46FAF7D0FD5A46CDE9FB
:1056480008014B4658464946FAF77EFF6A4B002246
:1056580006460F46FAF7C2FDDDE90823FAF7BEFD54
:10566800D846DDE90EBC0D465A460B46404649462B
:10567800CDE90CBCFAF768FF5C46804689465E4B6C
:10568800002220462946FAF7A7FD32463B46FAF79C
:10569800A3FD02460B46DDE90801FAF79DFDDDE9A9
:1056A8000423FAF751FF224606460F462B46DDE94A
:1056B8000601FAF749FF02460B4630463946FAF723
:1056C8008DFD06460F4602460B4640464946FAF708
:1056D80085FDDDE90CBC3CA3D3E900235846CDE9A0
:1056E80008BC0D46FAF730FF5C46CDE90401424696
:1056F8004B4620462946FAF76FFD02460B463046D0
:105708003946FAF769FD32A3D3E90023FAF71CFFFB
:1057180031A3D3E9002306460F4620462946FAF767
:1057280013FF02460B4630463946FAF757FD0B9AE7
:10573800324B1344D3E90023FAF750FDCDE90601B3
:105748000A98FAF797FE0B9A2D4B1344D3E9008970
:105758000646DDE906230F46DDE90401FAF73EFDBA
:1057680042464B46FAF73AFD32463B46FAF736FDD3
:10577800DDE908BC32463B4658460D46FAF72CFD93
:1057880042464B46FAF728FDDDE90423FAF724FDE3
:105798005C46024636E000BFEF4E454A287ECA3FC7
:1057A80065DBC9934A86CD3F01411DA96074D13F8D
:1057B8004D268F515555D53FFFAB6FDBB66DDB3F9F
:1057C800033333333333E33F000000E009C7EE3FD0
:1057D800FD033ADC09C7EE3FF5015B14E02F3EBE3E
:1057E8000000F07F000040438E98030079B60B005C
:1057F800C85E00080000F03F00000840A85E0008EE
:10580800B85E00080B46DDE90601D7E54FF0010A4E
:105818005EE6B4A3D3E9002330463946FAF7DEFC46
:105828004246CDE900014B4620462946FAF7D4FC0A
:1058380002460B46DDE90001FBF716F900287FF464
:1058480000AE4FEA2A5A4FF48013AAF2FE3A43FAFE
:105858000AFADA44CAF30A519D48A1F2FF31084115
:1058680000EA0A03CAF3130AC1F114014AF4801AC0
:105878004AFA01FABBF1000F404649464FF00002D0
:10588800B8BFCAF1000AFAF7A7FC80468946324633
:105898003B4640464946FAF7A1FC00247CA3D3E9DD
:1058A800002320460D46FAF74FFE4246CDE9000197
:1058B8004B4620462946FAF78FFC02460B463046EF
:1058C8003946FAF789FC74A3D3E90023FAF73CFEBA
:1058D80073A3D3E900238046894620462946FAF770
:1058E80033FE02460B4640464946FAF777FC044623
:1058F8000D4602460B46DDE90001FAF76FFCDDE9CB
:10590800002380468946FAF767FC02460B46204684
:105918002946FAF761FC424606460F464B46404682
:105928004946FAF711FE60A3D3E9002304460D4661
:10593800FAF70AFE5EA3D3E90023FAF74DFC2246E4
:105948002B46FAF701FE5CA3D3E90023FAF746FCDD
:1059580022462B46FAF7F8FD59A3D3E90023FAF7B4
:105968003BFC22462B46FAF7EFFD57A3D3E9002369
:10597800FAF734FC22462B46FAF7E6FD02460B46B8
:1059880040464946FAF728FC04460D4602460B46AF
:1059980040464946FAF7D8FD0022CDE900014FF00C
:1059A800804320462946FAF717FC02460B46DDE9F4
:1059B8000001FAF7F3FE324604460D463B464046E0
:1059C8004946FAF7C1FD32463B46FAF707FC02465C
:1059D8000B4620462946FAF7FFFB42464B46FAF7A4
:1059E800FBFB0B4602463B490020FAF7F5FB41EC6E
:1059F800100B10EE903A03EB0A53B3F5801F30DA20
:105A0800504600F07DF851EC100BDDE90223FFF75A
:105A1800D2BB314C21F00043A3421AD92F4B0B447F
:105A2800034309D0DDE9020100220023FAF7FEFF53
:105A3800003818BF01202BE442464B46FAF7CCFB4E
:105A480032463B46FBF706F80028EBD1DFF89CA06E
:105A5800F7E69A46224B9A453FF6F3AEDDF810A0DA
:105A680015E751EC100B1946CFE71A490020FFF74C
:105A780018BB00200021FFF714BB30463946FFF75A
:105A880010BB0C46FFF75EBB0024FFF749BB00BF05
:105A980000000000432EE63FEF39FAFE422EE63FB3
:105AA800396CA80C615C20BED0A4BE726937663E12
:105AB800F16BD2C541BDBB3E2CDE25AF6A56113F06
:105AC80093BDBE166CC1663F3E5555555555C53FED
